{
  "contractName": "Platform",
  "abi": [
    {
      "inputs": [],
      "stateMutability": "nonpayable",
      "type": "constructor"
    },
    {
      "anonymous": false,
      "inputs": [
        {
          "indexed": true,
          "internalType": "address",
          "name": "previousOwner",
          "type": "address"
        },
        {
          "indexed": true,
          "internalType": "address",
          "name": "newOwner",
          "type": "address"
        }
      ],
      "name": "OwnershipTransferred",
      "type": "event"
    },
    {
      "inputs": [
        {
          "internalType": "uint256",
          "name": "",
          "type": "uint256"
        }
      ],
      "name": "CrowdPros",
      "outputs": [
        {
          "internalType": "address",
          "name": "",
          "type": "address"
        }
      ],
      "stateMutability": "view",
      "type": "function",
      "constant": true
    },
    {
      "inputs": [],
      "name": "owner",
      "outputs": [
        {
          "internalType": "address",
          "name": "",
          "type": "address"
        }
      ],
      "stateMutability": "view",
      "type": "function",
      "constant": true
    },
    {
      "inputs": [],
      "name": "renounceOwnership",
      "outputs": [],
      "stateMutability": "nonpayable",
      "type": "function"
    },
    {
      "inputs": [
        {
          "internalType": "address",
          "name": "",
          "type": "address"
        },
        {
          "internalType": "uint256",
          "name": "",
          "type": "uint256"
        }
      ],
      "name": "sponsorCrowdPros",
      "outputs": [
        {
          "internalType": "address",
          "name": "",
          "type": "address"
        }
      ],
      "stateMutability": "view",
      "type": "function",
      "constant": true
    },
    {
      "inputs": [
        {
          "internalType": "address",
          "name": "newOwner",
          "type": "address"
        }
      ],
      "name": "transferOwnership",
      "outputs": [],
      "stateMutability": "nonpayable",
      "type": "function"
    },
    {
      "inputs": [
        {
          "internalType": "address",
          "name": "_sender",
          "type": "address"
        },
        {
          "internalType": "string",
          "name": "_name",
          "type": "string"
        },
        {
          "internalType": "uint256",
          "name": "_totalCapital",
          "type": "uint256"
        },
        {
          "internalType": "uint256",
          "name": "_singleCapital",
          "type": "uint256"
        },
        {
          "internalType": "uint256",
          "name": "_endingTimeStamp",
          "type": "uint256"
        }
      ],
      "name": "createCrowd",
      "outputs": [],
      "stateMutability": "nonpayable",
      "type": "function"
    },
    {
      "inputs": [],
      "name": "getAllCrowd",
      "outputs": [
        {
          "internalType": "address[]",
          "name": "",
          "type": "address[]"
        }
      ],
      "stateMutability": "view",
      "type": "function",
      "constant": true
    },
    {
      "inputs": [],
      "name": "getSponsorCrowd",
      "outputs": [
        {
          "internalType": "address[]",
          "name": "",
          "type": "address[]"
        }
      ],
      "stateMutability": "view",
      "type": "function",
      "constant": true
    },
    {
      "inputs": [],
      "name": "getVotingCrowdpros",
      "outputs": [
        {
          "internalType": "address[]",
          "name": "",
          "type": "address[]"
        }
      ],
      "stateMutability": "view",
      "type": "function",
      "constant": true
    }
  ],
  "bytecode": "0x608060405234801561001057600080fd5b5061002d6100226100dc60201b60201c565b6100e460201b60201c565b33600160006101000a81548173ffffffffffffffffffffffffffffffffffffffff021916908373ffffffffffffffffffffffffffffffffffffffff16021790555060405161007a906101a8565b604051809103906000f080158015610096573d6000803e3d6000fd5b50600460006101000a81548173ffffffffffffffffffffffffffffffffffffffff021916908373ffffffffffffffffffffffffffffffffffffffff1602179055506101b5565b600033905090565b60008060009054906101000a900473ffffffffffffffffffffffffffffffffffffffff169050816000806101000a81548173ffffffffffffffffffffffffffffffffffffffff021916908373ffffffffffffffffffffffffffffffffffffffff1602179055508173ffffffffffffffffffffffffffffffffffffffff168173ffffffffffffffffffffffffffffffffffffffff167f8be0079c531659141344cd1fd0a4f28419497f9722a3daafe3b4186f6b6457e060405160405180910390a35050565b61051480612d2983390190565b612b65806101c46000396000f3fe60806040523480156200001157600080fd5b5060043610620000a05760003560e01c8063715018a6116200006f578063715018a614620001415780638da5cb5b146200014d5780639d82abcb146200016f578063cd311e0f146200018f578063f2fde38b14620001c557620000a0565b8063062144d014620000a55780632909b09a14620000c75780633371c9f614620000e957806334d32155146200011f575b600080fd5b620000af620001e5565b604051620000be919062000db0565b60405180910390f35b620000d162000275565b604051620000e0919062000db0565b60405180910390f35b62000107600480360381019062000101919062000aba565b62000342565b60405162000116919062000d1f565b60405180910390f35b6200012962000391565b60405162000138919062000db0565b60405180910390f35b6200014b6200044e565b005b62000157620004df565b60405162000166919062000d1f565b60405180910390f35b6200018d600480360381019062000187919062000a1f565b62000508565b005b620001ad6004803603810190620001a7919062000b40565b6200067c565b604051620001bc919062000d1f565b60405180910390f35b620001e36004803603810190620001dd9190620009f3565b620006bc565b005b606060028054806020026020016040519081016040528092919081815260200182805480156200026b57602002820191906000526020600020905b8160009054906101000a900473ffffffffffffffffffffffffffffffffffffffff1673ffffffffffffffffffffffffffffffffffffffff168152602001906001019080831162000220575b5050505050905090565b6060600360003373ffffffffffffffffffffffffffffffffffffffff1673ffffffffffffffffffffffffffffffffffffffff1681526020019081526020016000208054806020026020016040519081016040528092919081815260200182805480156200033857602002820191906000526020600020905b8160009054906101000a900473ffffffffffffffffffffffffffffffffffffffff1673ffffffffffffffffffffffffffffffffffffffff1681526020019060010190808311620002ed575b5050505050905090565b600360205281600052604060002081815481106200035f57600080fd5b906000526020600020016000915091509054906101000a900473ffffffffffffffffffffffffffffffffffffffff1681565b6060600460009054906101000a900473ffffffffffffffffffffffffffffffffffffffff1673ffffffffffffffffffffffffffffffffffffffff1663c36fcb2b336040518263ffffffff1660e01b8152600401620003f0919062000d1f565b60006040518083038186803b1580156200040957600080fd5b505afa1580156200041e573d6000803e3d6000fd5b505050506040513d6000823e3d601f19601f8201168201806040525081019062000449919062000afb565b905090565b62000458620007c0565b73ffffffffffffffffffffffffffffffffffffffff1662000478620004df565b73ffffffffffffffffffffffffffffffffffffffff1614620004d1576040517f08c379a0000000000000000000000000000000000000000000000000000000008152600401620004c89062000df6565b60405180910390fd5b620004dd6000620007c8565b565b60008060009054906101000a900473ffffffffffffffffffffffffffffffffffffffff16905090565b60008585858585600460009054906101000a900473ffffffffffffffffffffffffffffffffffffffff1660405162000540906200088c565b620005519695949392919062000d3c565b604051809103906000f0801580156200056e573d6000803e3d6000fd5b5090506002819080600181540180825580915050600190039060005260206000200160009091909190916101000a81548173ffffffffffffffffffffffffffffffffffffffff021916908373ffffffffffffffffffffffffffffffffffffffff160217905550600360003373ffffffffffffffffffffffffffffffffffffffff1673ffffffffffffffffffffffffffffffffffffffff168152602001908152602001600020819080600181540180825580915050600190039060005260206000200160009091909190916101000a81548173ffffffffffffffffffffffffffffffffffffffff021916908373ffffffffffffffffffffffffffffffffffffffff160217905550505050505050565b600281815481106200068d57600080fd5b906000526020600020016000915054906101000a900473ffffffffffffffffffffffffffffffffffffffff1681565b620006c6620007c0565b73ffffffffffffffffffffffffffffffffffffffff16620006e6620004df565b73ffffffffffffffffffffffffffffffffffffffff16146200073f576040517f08c379a0000000000000000000000000000000000000000000000000000000008152600401620007369062000df6565b60405180910390fd5b600073ffffffffffffffffffffffffffffffffffffffff168173ffffffffffffffffffffffffffffffffffffffff161415620007b2576040517f08c379a0000000000000000000000000000000000000000000000000000000008152600401620007a99062000dd4565b60405180910390fd5b620007bd81620007c8565b50565b600033905090565b60008060009054906101000a900473ffffffffffffffffffffffffffffffffffffffff169050816000806101000a81548173ffffffffffffffffffffffffffffffffffffffff021916908373ffffffffffffffffffffffffffffffffffffffff1602179055508173ffffffffffffffffffffffffffffffffffffffff168173ffffffffffffffffffffffffffffffffffffffff167f8be0079c531659141344cd1fd0a4f28419497f9722a3daafe3b4186f6b6457e060405160405180910390a35050565b611b0d806200102383390190565b6000620008b1620008ab8462000e4c565b62000e18565b90508083825260208201905082856020860282011115620008d157600080fd5b60005b85811015620009055781620008ea88826200096b565b845260208401935060208301925050600181019050620008d4565b5050509392505050565b600062000926620009208462000e7b565b62000e18565b9050828152602081018484840111156200093f57600080fd5b6200094c84828562000f69565b509392505050565b600081359050620009658162000fee565b92915050565b6000815190506200097c8162000fee565b92915050565b600082601f8301126200099457600080fd5b8151620009a68482602086016200089a565b91505092915050565b600082601f830112620009c157600080fd5b8135620009d38482602086016200090f565b91505092915050565b600081359050620009ed8162001008565b92915050565b60006020828403121562000a0657600080fd5b600062000a168482850162000954565b91505092915050565b600080600080600060a0868803121562000a3857600080fd5b600062000a488882890162000954565b955050602086013567ffffffffffffffff81111562000a6657600080fd5b62000a7488828901620009af565b945050604062000a8788828901620009dc565b935050606062000a9a88828901620009dc565b925050608062000aad88828901620009dc565b9150509295509295909350565b6000806040838503121562000ace57600080fd5b600062000ade8582860162000954565b925050602062000af185828601620009dc565b9150509250929050565b60006020828403121562000b0e57600080fd5b600082015167ffffffffffffffff81111562000b2957600080fd5b62000b378482850162000982565b91505092915050565b60006020828403121562000b5357600080fd5b600062000b6384828501620009dc565b91505092915050565b600062000b7a838362000b86565b60208301905092915050565b62000b918162000f03565b82525050565b62000ba28162000f03565b82525050565b600062000bb58262000ebe565b62000bc1818562000ee1565b935062000bce8362000eae565b8060005b8381101562000c0557815162000be9888262000b6c565b975062000bf68362000ed4565b92505060018101905062000bd2565b5085935050505092915050565b62000c1d8162000f41565b82525050565b600062000c308262000ec9565b62000c3c818562000ef2565b935062000c4e81856020860162000f78565b62000c598162000fdd565b840191505092915050565b600062000c7360268362000ef2565b91507f4f776e61626c653a206e6577206f776e657220697320746865207a65726f206160008301527f64647265737300000000000000000000000000000000000000000000000000006020830152604082019050919050565b600062000cdb60208362000ef2565b91507f4f776e61626c653a2063616c6c6572206973206e6f7420746865206f776e65726000830152602082019050919050565b62000d198162000f37565b82525050565b600060208201905062000d36600083018462000b97565b92915050565b600060c08201905062000d53600083018962000b97565b818103602083015262000d67818862000c23565b905062000d78604083018762000d0e565b62000d87606083018662000d0e565b62000d96608083018562000d0e565b62000da560a083018462000c12565b979650505050505050565b6000602082019050818103600083015262000dcc818462000ba8565b905092915050565b6000602082019050818103600083015262000def8162000c64565b9050919050565b6000602082019050818103600083015262000e118162000ccc565b9050919050565b6000604051905081810181811067ffffffffffffffff8211171562000e425762000e4162000fae565b5b8060405250919050565b600067ffffffffffffffff82111562000e6a5762000e6962000fae565b5b602082029050602081019050919050565b600067ffffffffffffffff82111562000e995762000e9862000fae565b5b601f19601f8301169050602081019050919050565b6000819050602082019050919050565b600081519050919050565b600081519050919050565b6000602082019050919050565b600082825260208201905092915050565b600082825260208201905092915050565b600062000f108262000f17565b9050919050565b600073ffffffffffffffffffffffffffffffffffffffff82169050919050565b6000819050919050565b600062000f4e8262000f55565b9050919050565b600062000f628262000f17565b9050919050565b82818337600083830152505050565b60005b8381101562000f9857808201518184015260208101905062000f7b565b8381111562000fa8576000848401525b50505050565b7f4e487b7100000000000000000000000000000000000000000000000000000000600052604160045260246000fd5b6000601f19601f8301169050919050565b62000ff98162000f03565b81146200100557600080fd5b50565b620010138162000f37565b81146200101f57600080fd5b5056fe60806040523480156200001157600080fd5b5060405162001b0d38038062001b0d833981810160405281019062000037919062000290565b856000806101000a81548173ffffffffffffffffffffffffffffffffffffffff021916908373ffffffffffffffffffffffffffffffffffffffff16021790555084600190805190602001906200008f92919062000129565b50670de0b6b3a764000084620000a6919062000403565b600281905550670de0b6b3a764000083620000c2919062000403565b6003819055508142620000d69190620003a6565b60048190555080600760006101000a81548173ffffffffffffffffffffffffffffffffffffffff021916908373ffffffffffffffffffffffffffffffffffffffff160217905550505050505050620005fd565b8280546200013790620004ec565b90600052602060002090601f0160209004810192826200015b5760008555620001a7565b82601f106200017657805160ff1916838001178555620001a7565b82800160010185558215620001a7579182015b82811115620001a657825182559160200191906001019062000189565b5b509050620001b69190620001ba565b5090565b5b80821115620001d5576000816000905550600101620001bb565b5090565b6000620001f0620001ea8462000373565b6200033f565b9050828152602081018484840111156200020957600080fd5b62000216848285620004b6565b509392505050565b6000815190506200022f81620005af565b92915050565b6000815190506200024681620005c9565b92915050565b600082601f8301126200025e57600080fd5b815162000270848260208601620001d9565b91505092915050565b6000815190506200028a81620005e3565b92915050565b60008060008060008060c08789031215620002aa57600080fd5b6000620002ba89828a016200021e565b965050602087015167ffffffffffffffff811115620002d857600080fd5b620002e689828a016200024c565b9550506040620002f989828a0162000279565b94505060606200030c89828a0162000279565b93505060806200031f89828a0162000279565b92505060a06200033289828a0162000235565b9150509295509295509295565b6000604051905081810181811067ffffffffffffffff8211171562000369576200036862000580565b5b8060405250919050565b600067ffffffffffffffff82111562000391576200039062000580565b5b601f19601f8301169050602081019050919050565b6000620003b382620004ac565b9150620003c083620004ac565b9250827fffffffffffffffffffffffffffffffffffffffffffffffffffffffffffffffff03821115620003f857620003f762000522565b5b828201905092915050565b60006200041082620004ac565b91506200041d83620004ac565b9250817fffffffffffffffffffffffffffffffffffffffffffffffffffffffffffffffff048311821515161562000459576200045862000522565b5b828202905092915050565b600062000471826200048c565b9050919050565b6000620004858262000464565b9050919050565b600073ffffffffffffffffffffffffffffffffffffffff82169050919050565b6000819050919050565b60005b83811015620004d6578082015181840152602081019050620004b9565b83811115620004e6576000848401525b50505050565b600060028204905060018216806200050557607f821691505b602082108114156200051c576200051b62000551565b5b50919050565b7f4e487b7100000000000000000000000000000000000000000000000000000000600052601160045260246000fd5b7f4e487b7100000000000000000000000000000000000000000000000000000000600052602260045260246000fd5b7f4e487b7100000000000000000000000000000000000000000000000000000000600052604160045260246000fd5b620005ba8162000464565b8114620005c657600080fd5b50565b620005d48162000478565b8114620005e057600080fd5b50565b620005ee81620004ac565b8114620005fa57600080fd5b50565b611500806200060d6000396000f3fe6080604052600436106100dd5760003560e01c8063a85adeab1161007f578063da58c7d911610059578063da58c7d91461029f578063e3fc5828146102dc578063e8b5e51f1461031d578063fd4a77f114610327576100dd565b8063a85adeab1461021f578063cdd722531461024a578063d5ec96f714610276576100dd565b8063481c6a75116100bb578063481c6a75146101635780636f7bc9be1461018e57806377ce5f69146101cb5780639a33e300146101f4576100dd565b806312065fe0146100e25780631a1b89a71461010d578063383032ea14610138575b600080fd5b3480156100ee57600080fd5b506100f7610350565b6040516101049190611166565b60405180910390f35b34801561011957600080fd5b50610122610358565b60405161012f9190611166565b60405180910390f35b34801561014457600080fd5b5061014d61035e565b60405161015a9190611166565b60405180910390f35b34801561016f57600080fd5b50610178610364565b604051610185919061105b565b60405180910390f35b34801561019a57600080fd5b506101b560048036038101906101b09190610ea8565b610388565b6040516101c291906110cf565b60405180910390f35b3480156101d757600080fd5b506101f260048036038101906101ed9190610f38565b6103a8565b005b34801561020057600080fd5b5061020961058d565b60405161021691906110ea565b60405180910390f35b34801561022b57600080fd5b5061023461061b565b6040516102419190611166565b60405180910390f35b34801561025657600080fd5b5061025f610621565b60405161026d92919061109f565b60405180910390f35b34801561028257600080fd5b5061029d60048036038101906102989190610ed1565b6106bc565b005b3480156102ab57600080fd5b506102c660048036038101906102c19190610f38565b61086a565b6040516102d3919061105b565b60405180910390f35b3480156102e857600080fd5b5061030360048036038101906102fe9190610f38565b6108a9565b60405161031495949392919061110c565b60405180910390f35b610325610994565b005b34801561033357600080fd5b5061034e60048036038101906103499190610f38565b610b9f565b005b600047905090565b60035481565b60025481565b60008054906101000a900473ffffffffffffffffffffffffffffffffffffffff1681565b60066020528060005260406000206000915054906101000a900460ff1681565b600060096000838152602001908152602001600020905060008054906101000a900473ffffffffffffffffffffffffffffffffffffffff1673ffffffffffffffffffffffffffffffffffffffff163373ffffffffffffffffffffffffffffffffffffffff1614610441577f4e487b7100000000000000000000000000000000000000000000000000000000600052600160045260246000fd5b600580549050600282600301546104589190611237565b1161048c577f4e487b7100000000000000000000000000000000000000000000000000000000600052600160045260246000fd5b47816001015411156104c7577f4e487b7100000000000000000000000000000000000000000000000000000000600052600160045260246000fd5b8060020160009054906101000a900473ffffffffffffffffffffffffffffffffffffffff1673ffffffffffffffffffffffffffffffffffffffff166108fc82600101549081150290604051600060405180830381858888f19350505050158015610535573d6000803e3d6000fd5b5060028160050160006101000a81548160ff02191690836002811115610584577f4e487b7100000000000000000000000000000000000000000000000000000000600052602160045260246000fd5b02179055505050565b6001805461059a90611340565b80601f01602080910402602001604051908101604052809291908181526020018280546105c690611340565b80156106135780601f106105e857610100808354040283529160200191610613565b820191906000526020600020905b8154815290600101906020018083116105f657829003601f168201915b505050505081565b60045481565b6060600060058080549050818054806020026020016040519081016040528092919081815260200182805480156106ad57602002820191906000526020600020905b8160009054906101000a900473ffffffffffffffffffffffffffffffffffffffff1673ffffffffffffffffffffffffffffffffffffffff1681526020019060010190808311610663575b50505050509150915091509091565b60008054906101000a900473ffffffffffffffffffffffffffffffffffffffff1673ffffffffffffffffffffffffffffffffffffffff163373ffffffffffffffffffffffffffffffffffffffff161461073e577f4e487b7100000000000000000000000000000000000000000000000000000000600052600160045260246000fd5b47821115610775577f4e487b7100000000000000000000000000000000000000000000000000000000600052600160045260246000fd5b6000600960006008600081548092919061078e90611372565b9190505581526020019081526020016000209050838160000190805190602001906107ba929190610d73565b50828160010181905550818160020160006101000a81548173ffffffffffffffffffffffffffffffffffffffff021916908373ffffffffffffffffffffffffffffffffffffffff1602179055506000816003018190555060008160050160006101000a81548160ff0219169083600281111561085f577f4e487b7100000000000000000000000000000000000000000000000000000000600052602160045260246000fd5b021790555050505050565b6005818154811061087a57600080fd5b906000526020600020016000915054906101000a900473ffffffffffffffffffffffffffffffffffffffff1681565b60096020528060005260406000206000915090508060000180546108cc90611340565b80601f01602080910402602001604051908101604052809291908181526020018280546108f890611340565b80156109455780601f1061091a57610100808354040283529160200191610945565b820191906000526020600020905b81548152906001019060200180831161092857829003601f168201915b5050505050908060010154908060020160009054906101000a900473ffffffffffffffffffffffffffffffffffffffff16908060030154908060050160009054906101000a900460ff16905085565b60035434146109cc577f4e487b7100000000000000000000000000000000000000000000000000000000600052600160045260246000fd5b60001515600660003373ffffffffffffffffffffffffffffffffffffffff1673ffffffffffffffffffffffffffffffffffffffff16815260200190815260200160002060009054906101000a900460ff16151514610a53577f4e487b7100000000000000000000000000000000000000000000000000000000600052600160045260246000fd5b6001600660003373ffffffffffffffffffffffffffffffffffffffff1673ffffffffffffffffffffffffffffffffffffffff16815260200190815260200160002060006101000a81548160ff0219169083151502179055506005339080600181540180825580915050600190039060005260206000200160009091909190916101000a81548173ffffffffffffffffffffffffffffffffffffffff021916908373ffffffffffffffffffffffffffffffffffffffff160217905550600760009054906101000a900473ffffffffffffffffffffffffffffffffffffffff1673ffffffffffffffffffffffffffffffffffffffff1663d7a22f1c33306040518363ffffffff1660e01b8152600401610b6b929190611076565b600060405180830381600087803b158015610b8557600080fd5b505af1158015610b99573d6000803e3d6000fd5b50505050565b600660003373ffffffffffffffffffffffffffffffffffffffff1673ffffffffffffffffffffffffffffffffffffffff16815260200190815260200160002060009054906101000a900460ff16610c1f577f4e487b7100000000000000000000000000000000000000000000000000000000600052600160045260246000fd5b6000600960008381526020019081526020016000209050600081600101541415610c72577f4e487b7100000000000000000000000000000000000000000000000000000000600052600160045260246000fd5b600015158160040160003373ffffffffffffffffffffffffffffffffffffffff1673ffffffffffffffffffffffffffffffffffffffff16815260200190815260200160002060009054906101000a900460ff16151514610cfb577f4e487b7100000000000000000000000000000000000000000000000000000000600052600160045260246000fd5b806003016000815480929190610d1090611372565b919050555060018160040160003373ffffffffffffffffffffffffffffffffffffffff1673ffffffffffffffffffffffffffffffffffffffff16815260200190815260200160002060006101000a81548160ff0219169083151502179055505050565b828054610d7f90611340565b90600052602060002090601f016020900481019282610da15760008555610de8565b82601f10610dba57805160ff1916838001178555610de8565b82800160010185558215610de8579182015b82811115610de7578251825591602001919060010190610dcc565b5b509050610df59190610df9565b5090565b5b80821115610e12576000816000905550600101610dfa565b5090565b6000610e29610e24846111b2565b611181565b905082815260208101848484011115610e4157600080fd5b610e4c8482856112fe565b509392505050565b600081359050610e638161149c565b92915050565b600082601f830112610e7a57600080fd5b8135610e8a848260208601610e16565b91505092915050565b600081359050610ea2816114b3565b92915050565b600060208284031215610eba57600080fd5b6000610ec884828501610e54565b91505092915050565b600080600060608486031215610ee657600080fd5b600084013567ffffffffffffffff811115610f0057600080fd5b610f0c86828701610e69565b9350506020610f1d86828701610e93565b9250506040610f2e86828701610e54565b9150509250925092565b600060208284031215610f4a57600080fd5b6000610f5884828501610e93565b91505092915050565b6000610f6d8383610f79565b60208301905092915050565b610f8281611291565b82525050565b610f9181611291565b82525050565b6000610fa2826111f2565b610fac8185611215565b9350610fb7836111e2565b8060005b83811015610fe8578151610fcf8882610f61565b9750610fda83611208565b925050600181019050610fbb565b5085935050505092915050565b610ffe816112a3565b82525050565b61100d816112ec565b82525050565b600061101e826111fd565b6110288185611226565b935061103881856020860161130d565b61104181611477565b840191505092915050565b611055816112e2565b82525050565b60006020820190506110706000830184610f88565b92915050565b600060408201905061108b6000830185610f88565b6110986020830184610f88565b9392505050565b600060408201905081810360008301526110b98185610f97565b90506110c8602083018461104c565b9392505050565b60006020820190506110e46000830184610ff5565b92915050565b600060208201905081810360008301526111048184611013565b905092915050565b600060a08201905081810360008301526111268188611013565b9050611135602083018761104c565b6111426040830186610f88565b61114f606083018561104c565b61115c6080830184611004565b9695505050505050565b600060208201905061117b600083018461104c565b92915050565b6000604051905081810181811067ffffffffffffffff821117156111a8576111a7611448565b5b8060405250919050565b600067ffffffffffffffff8211156111cd576111cc611448565b5b601f19601f8301169050602081019050919050565b6000819050602082019050919050565b600081519050919050565b600081519050919050565b6000602082019050919050565b600082825260208201905092915050565b600082825260208201905092915050565b6000611242826112e2565b915061124d836112e2565b9250817fffffffffffffffffffffffffffffffffffffffffffffffffffffffffffffffff0483118215151615611286576112856113bb565b5b828202905092915050565b600061129c826112c2565b9050919050565b60008115159050919050565b60008190506112bd82611488565b919050565b600073ffffffffffffffffffffffffffffffffffffffff82169050919050565b6000819050919050565b60006112f7826112af565b9050919050565b82818337600083830152505050565b60005b8381101561132b578082015181840152602081019050611310565b8381111561133a576000848401525b50505050565b6000600282049050600182168061135857607f821691505b6020821081141561136c5761136b611419565b5b50919050565b600061137d826112e2565b91507fffffffffffffffffffffffffffffffffffffffffffffffffffffffffffffffff8214156113b0576113af6113bb565b5b600182019050919050565b7f4e487b7100000000000000000000000000000000000000000000000000000000600052601160045260246000fd5b7f4e487b7100000000000000000000000000000000000000000000000000000000600052602160045260246000fd5b7f4e487b7100000000000000000000000000000000000000000000000000000000600052602260045260246000fd5b7f4e487b7100000000000000000000000000000000000000000000000000000000600052604160045260246000fd5b6000601f19601f8301169050919050565b60038110611499576114986113ea565b5b50565b6114a581611291565b81146114b057600080fd5b50565b6114bc816112e2565b81146114c757600080fd5b5056fea2646970667358221220be4ef705d8225efc1223f138a18a49b94ce28e0f2d4cf0f460e3e3a1deedf51964736f6c63430008000033a26469706673582212208791424f4cd329c7ea3bcfb65f0b651e81b80d6e883f3d08b0755183e7b439c864736f6c63430008000033608060405234801561001057600080fd5b506104f4806100206000396000f3fe608060405234801561001057600080fd5b50600436106100415760003560e01c806381a1a6a414610046578063c36fcb2b14610076578063d7a22f1c146100a6575b600080fd5b610060600480360381019061005b919061030e565b6100c2565b60405161006d91906103de565b60405180910390f35b610090600480360381019061008b91906102a9565b610110565b60405161009d91906103f9565b60405180910390f35b6100c060048036038101906100bb91906102d2565b6101dc565b005b600060205281600052604060002081815481106100de57600080fd5b906000526020600020016000915091509054906101000a900473ffffffffffffffffffffffffffffffffffffffff1681565b60606000808373ffffffffffffffffffffffffffffffffffffffff1673ffffffffffffffffffffffffffffffffffffffff1681526020019081526020016000208054806020026020016040519081016040528092919081815260200182805480156101d057602002820191906000526020600020905b8160009054906101000a900473ffffffffffffffffffffffffffffffffffffffff1673ffffffffffffffffffffffffffffffffffffffff1681526020019060010190808311610186575b50505050509050919050565b6000808373ffffffffffffffffffffffffffffffffffffffff1673ffffffffffffffffffffffffffffffffffffffff168152602001908152602001600020819080600181540180825580915050600190039060005260206000200160009091909190916101000a81548173ffffffffffffffffffffffffffffffffffffffff021916908373ffffffffffffffffffffffffffffffffffffffff1602179055505050565b60008135905061028e81610490565b92915050565b6000813590506102a3816104a7565b92915050565b6000602082840312156102bb57600080fd5b60006102c98482850161027f565b91505092915050565b600080604083850312156102e557600080fd5b60006102f38582860161027f565b92505060206103048582860161027f565b9150509250929050565b6000806040838503121561032157600080fd5b600061032f8582860161027f565b925050602061034085828601610294565b9150509250929050565b60006103568383610362565b60208301905092915050565b61036b81610454565b82525050565b61037a81610454565b82525050565b600061038b8261042b565b6103958185610443565b93506103a08361041b565b8060005b838110156103d15781516103b8888261034a565b97506103c383610436565b9250506001810190506103a4565b5085935050505092915050565b60006020820190506103f36000830184610371565b92915050565b600060208201905081810360008301526104138184610380565b905092915050565b6000819050602082019050919050565b600081519050919050565b6000602082019050919050565b600082825260208201905092915050565b600061045f82610466565b9050919050565b600073ffffffffffffffffffffffffffffffffffffffff82169050919050565b6000819050919050565b61049981610454565b81146104a457600080fd5b50565b6104b081610486565b81146104bb57600080fd5b5056fea26469706673582212201ee052631f33e34f8f86d11f13c62f6e6faf67908ceec66798593efa12f6462064736f6c63430008000033",
  "immutableReferences": {},
  "source": "// SPDX-License-Identifier: MIT\npragma solidity ^0.8.0;\nimport \"./CrowdFunding.sol\";\nimport \"./VoteCrowdPros.sol\";\nimport \"@openzeppelin/contracts/access/Ownable.sol\";\n\ncontract Platform is Ownable{\n    address private _owner; // \n    // 1\n    address[] public CrowdPros;\n    // 2\n    mapping(address => address[]) public sponsorCrowdPros;\n    // 3\n    VoteCrowdPros private votingCrowdpros;\n\n    constructor() {\n        _owner = msg.sender;\n        votingCrowdpros = new VoteCrowdPros();\n    }\n\n    // \n    function createCrowd(address _sender, string memory _name, uint256 _totalCapital, uint256 _singleCapital, uint256 _endingTimeStamp) public {\n        address crowd = address(new CrowdFunding(_sender, _name, _totalCapital, _singleCapital, _endingTimeStamp, votingCrowdpros));\n        CrowdPros.push(crowd); // push \n        sponsorCrowdPros[msg.sender].push(crowd); // push \n    }\n\n    // \n    function getAllCrowd() public view returns(address[] memory) {\n        return CrowdPros;\n    }\n\n    // \n    function getSponsorCrowd() public view returns(address[] memory) {\n        return sponsorCrowdPros[msg.sender];\n    }\n\n    // \n    function getVotingCrowdpros() public view returns(address[] memory) {\n        return votingCrowdpros.getPro(msg.sender);\n    }\n\n}",
  "sourcePath": "/Users/denghui/Desktop/Solidity-Crowdfunding/contracts/Platform.sol",
  "compiler": {
    "name": "solc",
    "version": "0.8.0+commit.c7dfd78e.Emscripten.clang"
  },
  "schemaVersion": "3.4.5",
  "updatedAt": "2022-03-14T05:36:53.439Z",
  "networkType": "ethereum",
  "devdoc": {
    "kind": "dev",
    "methods": {
      "owner()": {
        "details": "Returns the address of the current owner."
      },
      "renounceOwnership()": {
        "details": "Leaves the contract without owner. It will not be possible to call `onlyOwner` functions anymore. Can only be called by the current owner. NOTE: Renouncing ownership will leave the contract without an owner, thereby removing any functionality that is only available to the owner."
      },
      "transferOwnership(address)": {
        "details": "Transfers ownership of the contract to a new account (`newOwner`). Can only be called by the current owner."
      }
    },
    "version": 1
  },
  "userdoc": {
    "kind": "user",
    "methods": {},
    "version": 1
  }
}