{
  "contractName": "VoteCrowdPros",
  "abi": [
    {
      "inputs": [
        {
          "internalType": "address",
          "name": "",
          "type": "address"
        },
        {
          "internalType": "uint256",
          "name": "",
          "type": "uint256"
        }
      ],
      "name": "votingCrowdPros",
      "outputs": [
        {
          "internalType": "address",
          "name": "",
          "type": "address"
        }
      ],
      "stateMutability": "view",
      "type": "function"
    },
    {
      "inputs": [
        {
          "internalType": "address",
          "name": "_sender",
          "type": "address"
        },
        {
          "internalType": "address",
          "name": "_pro",
          "type": "address"
        }
      ],
      "name": "addPro",
      "outputs": [],
      "stateMutability": "nonpayable",
      "type": "function"
    },
    {
      "inputs": [
        {
          "internalType": "address",
          "name": "_sender",
          "type": "address"
        }
      ],
      "name": "getPro",
      "outputs": [
        {
          "internalType": "address[]",
          "name": "",
          "type": "address[]"
        }
      ],
      "stateMutability": "view",
      "type": "function"
    }
  ],
  "bytecode": "0x608060405234801561001057600080fd5b506104f4806100206000396000f3fe608060405234801561001057600080fd5b50600436106100415760003560e01c806381a1a6a414610046578063c36fcb2b14610076578063d7a22f1c146100a6575b600080fd5b610060600480360381019061005b919061030e565b6100c2565b60405161006d91906103de565b60405180910390f35b610090600480360381019061008b91906102a9565b610110565b60405161009d91906103f9565b60405180910390f35b6100c060048036038101906100bb91906102d2565b6101dc565b005b600060205281600052604060002081815481106100de57600080fd5b906000526020600020016000915091509054906101000a900473ffffffffffffffffffffffffffffffffffffffff1681565b60606000808373ffffffffffffffffffffffffffffffffffffffff1673ffffffffffffffffffffffffffffffffffffffff1681526020019081526020016000208054806020026020016040519081016040528092919081815260200182805480156101d057602002820191906000526020600020905b8160009054906101000a900473ffffffffffffffffffffffffffffffffffffffff1673ffffffffffffffffffffffffffffffffffffffff1681526020019060010190808311610186575b50505050509050919050565b6000808373ffffffffffffffffffffffffffffffffffffffff1673ffffffffffffffffffffffffffffffffffffffff168152602001908152602001600020819080600181540180825580915050600190039060005260206000200160009091909190916101000a81548173ffffffffffffffffffffffffffffffffffffffff021916908373ffffffffffffffffffffffffffffffffffffffff1602179055505050565b60008135905061028e81610490565b92915050565b6000813590506102a3816104a7565b92915050565b6000602082840312156102bb57600080fd5b60006102c98482850161027f565b91505092915050565b600080604083850312156102e557600080fd5b60006102f38582860161027f565b92505060206103048582860161027f565b9150509250929050565b6000806040838503121561032157600080fd5b600061032f8582860161027f565b925050602061034085828601610294565b9150509250929050565b60006103568383610362565b60208301905092915050565b61036b81610454565b82525050565b61037a81610454565b82525050565b600061038b8261042b565b6103958185610443565b93506103a08361041b565b8060005b838110156103d15781516103b8888261034a565b97506103c383610436565b9250506001810190506103a4565b5085935050505092915050565b60006020820190506103f36000830184610371565b92915050565b600060208201905081810360008301526104138184610380565b905092915050565b6000819050602082019050919050565b600081519050919050565b6000602082019050919050565b600082825260208201905092915050565b600061045f82610466565b9050919050565b600073ffffffffffffffffffffffffffffffffffffffff82169050919050565b6000819050919050565b61049981610454565b81146104a457600080fd5b50565b6104b081610486565b81146104bb57600080fd5b5056fea26469706673582212201ee052631f33e34f8f86d11f13c62f6e6faf67908ceec66798593efa12f6462064736f6c63430008000033",
  "immutableReferences": {},
  "source": "// SPDX-License-Identifier: MIT\npragma solidity ^0.8.0;\n\n\n//  \ncontract VoteCrowdPros{\n    // 1\n    mapping(address => address[]) public votingCrowdPros;\n\n    // \n    function addPro(address _sender, address _pro) public {\n        votingCrowdPros[_sender].push(_pro);\n    }\n\n    // \n    function getPro(address _sender) view public returns(address[] memory) {\n        return votingCrowdPros[_sender];\n    }\n\n}",
  "sourcePath": "/Users/denghui/Desktop/Solidity-Crowdfunding/contracts/VoteCrowdPros.sol",
  "compiler": {
    "name": "solc",
    "version": "0.8.0+commit.c7dfd78e.Emscripten.clang"
  },
  "schemaVersion": "3.4.5",
  "updatedAt": "2022-03-14T05:35:00.348Z",
  "devdoc": {
    "kind": "dev",
    "methods": {},
    "version": 1
  },
  "userdoc": {
    "kind": "user",
    "methods": {},
    "version": 1
  }
}